
螕貌枚螕貌脡螕貌脡螕貌脡螕貌脡螕貌脡螕貌脡螕貌脡螕貌脡螕貌脡螕貌脡螕貌脡螕貌脡螕貌脡螕貌脡螕貌脡螕貌脡螕貌脡螕貌脡螕貌脡螕貌脡螕貌脡螕貌脡螕貌脡螕貌脡螕貌脡螕貌脡螕貌脡螕貌脡螕貌脡螕貌脡螕貌脡螕貌脡螕貌脡螕貌脡螕貌脡螕貌脡螕貌脡螕貌脡螕貌脡螕貌脡螕貌脡螕貌脡螕貌脡螕貌脡螕貌脡螕貌脡螕貌脡螕貌脡螕貌霉
螕貌忙          MemoryMerge Swarm Starting            螕貌忙
螕貌脺螕貌脡螕貌脡螕貌脡螕貌脡螕貌脡螕貌脡螕貌脡螕貌脡螕貌脡螕貌脡螕貌脡螕貌脡螕貌脡螕貌脡螕貌脡螕貌脡螕貌脡螕貌脡螕貌脡螕貌脡螕貌脡螕貌脡螕貌脡螕貌脡螕貌脡螕貌脡螕貌脡螕貌脡螕貌脡螕貌脡螕貌脡螕貌脡螕貌脡螕貌脡螕貌脡螕貌脡螕貌脡螕貌脡螕貌脡螕貌脡螕貌脡螕貌脡螕貌脡螕貌脡螕貌脡螕貌脡螕貌脡螕貌脡螕貌楼
Goal    : What is 0G Labs and why does decentralized AI storage matter in 2026
SwarmID : memorymerge-swarm-001
Cycles  : 3
Network : 0G Galileo Testnet
螕枚脟螕枚脟螕枚脟螕枚脟螕枚脟螕枚脟螕枚脟螕枚脟螕枚脟螕枚脟螕枚脟螕枚脟螕枚脟螕枚脟螕枚脟螕枚脟螕枚脟螕枚脟螕枚脟螕枚脟螕枚脟螕枚脟螕枚脟螕枚脟螕枚脟螕枚脟螕枚脟螕枚脟螕枚脟螕枚脟螕枚脟螕枚脟螕枚脟螕枚脟螕枚脟螕枚脟螕枚脟螕枚脟螕枚脟螕枚脟螕枚脟螕枚脟螕枚脟螕枚脟螕枚脟螕枚脟螕枚脟螕枚脟螕枚脟

[Orchestrator] Initializing 0G Storage client...
[Orchestrator] Initializing Memory Manager...
[Orchestrator] Initializing Reflection Engine...
[ReflectionEngine] Initialized. Trigger every 6 turns.
[ReflectionEngine] Using 0G Compute model: qwen/qwen-2.5-7b-instruct
[Orchestrator] Initializing agents...
[Orchestrator] All agents ready. Starting swarm.


[Planner] Initializing swarm with goal: "What is 0G Labs and why does decentralized AI storage matter in 2026"
Starting upload for file of size: 194 bytes
Upload options: {
  tags: '0x',
  submitter: '',
  finalityRequired: true,
  taskSize: 1,
  expectedReplica: 1,
  fragmentSize: 4294967296,
  skipTx: false,
  skipIfFinalized: true,
  fee: 0n,
  nonce: undefined,
  onProgress: undefined,
  encryption: undefined
}
螕貌枚螕貌脡螕貌脡螕貌脡螕貌脡螕貌脡螕貌脡螕貌脡螕貌脡螕貌脡螕貌脡螕貌脡螕貌脡螕貌脡螕貌脡螕貌脡螕貌脡螕貌脡螕貌脡螕貌脡螕貌脡螕貌脡螕貌脡螕貌脡螕貌脡螕貌脡螕貌脡螕貌脡螕貌脡螕貌脡螕貌脡螕貌脡螕貌脡螕貌脡螕貌脡螕貌脡螕貌脡螕貌脡螕貌脡螕貌脡螕貌脡螕貌脡螕貌脡螕貌脡螕貌脡螕貌脡螕貌脡螕貌脡螕貌脡螕貌脡螕貌脡螕貌脡螕貌脡螕貌霉
螕貌忙         MemoryMerge 螕脟枚 Working Example              螕貌忙
螕貌忙  Decentralized Memory OS for AI Agent Swarms       螕貌忙
螕貌忙  Powered by 0G Storage + 0G Compute                螕貌忙
螕貌脺螕貌脡螕貌脡螕貌脡螕貌脡螕貌脡螕貌脡螕貌脡螕貌脡螕貌脡螕貌脡螕貌脡螕貌脡螕貌脡螕貌脡螕貌脡螕貌脡螕貌脡螕貌脡螕貌脡螕貌脡螕貌脡螕貌脡螕貌脡螕貌脡螕貌脡螕貌脡螕貌脡螕貌脡螕貌脡螕貌脡螕貌脡螕貌脡螕貌脡螕貌脡螕貌脡螕貌脡螕貌脡螕貌脡螕貌脡螕貌脡螕貌脡螕貌脡螕貌脡螕貌脡螕貌脡螕貌脡螕貌脡螕貌脡螕貌脡螕貌脡螕貌脡螕貌脡螕貌楼

Research Goal: "What is 0G Labs and why does decentralized AI storage matter in 2026"

What will happen:
  1. Planner agent breaks goal into tasks 螕氓脝 writes to 0G Storage
  2. Researcher agent executes tasks 螕氓脝 writes facts to 0G Storage
  3. Critic agent reviews facts 螕氓脝 updates confidence scores
  4. Reflection engine compresses memory via 0G Compute inference
  5. Final snapshot archived to 0G Storage Log permanently
  6. Restart with same SWARM_ID 螕脟枚 swarm resumes from memory

螕枚脟螕枚脟螕枚脟螕枚脟螕枚脟螕枚脟螕枚脟螕枚脟螕枚脟螕枚脟螕枚脟螕枚脟螕枚脟螕枚脟螕枚脟螕枚脟螕枚脟螕枚脟螕枚脟螕枚脟螕枚脟螕枚脟螕枚脟螕枚脟螕枚脟螕枚脟螕枚脟螕枚脟螕枚脟螕枚脟螕枚脟螕枚脟螕枚脟螕枚脟螕枚脟螕枚脟螕枚脟螕枚脟螕枚脟螕枚脟螕枚脟螕枚脟螕枚脟螕枚脟螕枚脟螕枚脟螕枚脟螕枚脟螕枚脟螕枚脟螕枚脟螕枚脟螕枚脟


螕貌枚螕貌脡螕貌脡螕貌脡螕貌脡螕貌脡螕貌脡螕貌脡螕貌脡螕貌脡螕貌脡螕貌脡螕貌脡螕貌脡螕貌脡螕貌脡螕貌脡螕貌脡螕貌脡螕貌脡螕貌脡螕貌脡螕貌脡螕貌脡螕貌脡螕貌脡螕貌脡螕貌脡螕貌脡螕貌脡螕貌脡螕貌脡螕貌脡螕貌脡螕貌脡螕貌脡螕貌脡螕貌脡螕貌脡螕貌脡螕貌脡螕貌脡螕貌脡螕貌脡螕貌脡螕貌脡螕貌脡螕貌脡螕貌脡螕貌霉
螕貌忙          MemoryMerge Swarm Starting            螕貌忙
螕貌脺螕貌脡螕貌脡螕貌脡螕貌脡螕貌脡螕貌脡螕貌脡螕貌脡螕貌脡螕貌脡螕貌脡螕貌脡螕貌脡螕貌脡螕貌脡螕貌脡螕貌脡螕貌脡螕貌脡螕貌脡螕貌脡螕貌脡螕貌脡螕貌脡螕貌脡螕貌脡螕貌脡螕貌脡螕貌脡螕貌脡螕貌脡螕貌脡螕貌脡螕貌脡螕貌脡螕貌脡螕貌脡螕貌脡螕貌脡螕貌脡螕貌脡螕貌脡螕貌脡螕貌脡螕貌脡螕貌脡螕貌脡螕貌脡螕貌楼
Goal    : What is 0G Labs and why does decentralized AI storage matter in 2026
SwarmID : memorymerge-swarm-001
Cycles  : 2
Network : 0G Galileo Testnet
螕枚脟螕枚脟螕枚脟螕枚脟螕枚脟螕枚脟螕枚脟螕枚脟螕枚脟螕枚脟螕枚脟螕枚脟螕枚脟螕枚脟螕枚脟螕枚脟螕枚脟螕枚脟螕枚脟螕枚脟螕枚脟螕枚脟螕枚脟螕枚脟螕枚脟螕枚脟螕枚脟螕枚脟螕枚脟螕枚脟螕枚脟螕枚脟螕枚脟螕枚脟螕枚脟螕枚脟螕枚脟螕枚脟螕枚脟螕枚脟螕枚脟螕枚脟螕枚脟螕枚脟螕枚脟螕枚脟螕枚脟螕枚脟螕枚脟

[Orchestrator] Initializing 0G Storage client...
[Orchestrator] Initializing Memory Manager...
[Orchestrator] Initializing Reflection Engine...
[ReflectionEngine] Initialized. Trigger every 6 turns.
[ReflectionEngine] Using 0G Compute model: qwen/qwen-2.5-7b-instruct
[Orchestrator] Initializing agents...
[Orchestrator] All agents ready. Starting swarm.


[Planner] Initializing swarm with goal: "What is 0G Labs and why does decentralized AI storage matter in 2026"
Starting upload for file of size: 194 bytes
Upload options: {
  tags: '0x',
  submitter: '',
  finalityRequired: true,
  taskSize: 1,
  expectedReplica: 1,
  fragmentSize: 4294967296,
  skipTx: false,
  skipIfFinalized: true,
  fee: 0n,
  nonce: undefined,
  onProgress: undefined,
  encryption: undefined
}
First selected node status : {
  connectedPeers: 2,
  logSyncHeight: 29702895,
  logSyncBlock: '0xc7dcf4a957258df058f5aeba458bcabd3416cc40e72683ed72685480a1ba50a1',
  nextTxSeq: 49100,
  networkIdentity: {
    chainId: 16602,
    flowAddress: '0x22e03a6a89b950f1c82ec5e74f8eca321a105296',
    p2pProtocolVersion: { major: 0, minor: 4, build: 0 }
  }
}
Selected nodes: [
  StorageNode {
    url: 'http://34.19.125.196:5678',
    timeout: 30000,
    retry: 3
  },
  StorageNode {
    url: 'http://34.169.28.106:5678',
    timeout: 30000,
    retry: 3
  }
]
Using splitable upload (handles both single and fragment cases)
File details - size: 194, numSegments: 1, numChunks: 1
Data prepared to upload root=0x255e86a5b9262aa58d4251a65477872c8bedc3cc79d968662793eb44cfb8f64c size=194 numSegments=1 numChunks=1
Attempting to find existing file info by root hash...
First selected node status : {
  connectedPeers: 2,
  logSyncHeight: 29702895,
  logSyncBlock: '0xc7dcf4a957258df058f5aeba458bcabd3416cc40e72683ed72685480a1ba50a1',
  nextTxSeq: 49100,
  networkIdentity: {
    chainId: 16602,
    flowAddress: '0x22e03a6a89b950f1c82ec5e74f8eca321a105296',
    p2pProtocolVersion: { major: 0, minor: 4, build: 0 }
  }
}
Selected nodes: [
  StorageNode {
    url: 'http://34.19.125.196:5678',
    timeout: 30000,
    retry: 3
  },
  StorageNode {
    url: 'http://34.169.28.106:5678',
    timeout: 30000,
    retry: 3
  }
]
Using splitable upload (handles both single and fragment cases)
File details - size: 194, numSegments: 1, numChunks: 1
Data prepared to upload root=0x53faf38850fe7c1065a4ad1072822dc4905b48fba04193b806f7a593f970f17f size=194 numSegments=1 numChunks=1
Attempting to find existing file info by root hash...
Submitting transaction with storage fee: 30733644962n
Submitting transaction with storage fee: 30733644962n
Transaction submitted, hash: 0x8c71e4e7b455995611139aa4578bfb420b6f343fa56e4388bd5cfb4cc9ea4d70
Wait for log entry on storage node
Upload failed with error: replacement fee too low (transaction="0x02f901b88240da0384ee6b280784ee6b28078304ece89422e03a6a89b950f1c82ec5e74f8eca321a105296850727de34a2b90144bc8c11f800000000000000000000000000000000000000000000000000000000000000200000000000000000000000000000000000000000000000000000000000000040000000000000000000000000be12fc7aade0631c313383bdb1d686c77db0840000000000000000000000000000000000000000000000000000000000000000c2000000000000000000000000000000000000000000000000000000000000006000000000000000000000000000000000000000000000000000000000000000800000000000000000000000000000000000000000000000000000000000000000000000000000000000000000000000000000000000000000000000000000000153faf38850fe7c1065a4ad1072822dc4905b48fba04193b806f7a593f970f17f0000000000000000000000000000000000000000000000000000000000000000c001a0e7241ea170643a7e143e7b692e356cf9b23f0c398d1eb41e28dc8919e7f7fa71a04fd8968a6a7dd63ad6fc0910933f1bffa8645173f5db96ab780fa250f4ce3c85", info={ "error": { "code": -32000, "message": "replacement transaction underpriced" } }, code=REPLACEMENT_UNDERPRICED, version=6.14.0)
Error stack: Error: replacement fee too low (transaction="0x02f901b88240da0384ee6b280784ee6b28078304ece89422e03a6a89b950f1c82ec5e74f8eca321a105296850727de34a2b90144bc8c11f800000000000000000000000000000000000000000000000000000000000000200000000000000000000000000000000000000000000000000000000000000040000000000000000000000000be12fc7aade0631c313383bdb1d686c77db0840000000000000000000000000000000000000000000000000000000000000000c2000000000000000000000000000000000000000000000000000000000000006000000000000000000000000000000000000000000000000000000000000000800000000000000000000000000000000000000000000000000000000000000000000000000000000000000000000000000000000000000000000000000000000153faf38850fe7c1065a4ad1072822dc4905b48fba04193b806f7a593f970f17f0000000000000000000000000000000000000000000000000000000000000000c001a0e7241ea170643a7e143e7b692e356cf9b23f0c398d1eb41e28dc8919e7f7fa71a04fd8968a6a7dd63ad6fc0910933f1bffa8645173f5db96ab780fa250f4ce3c85", info={ "error": { "code": -32000, "message": "replacement transaction underpriced" } }, code=REPLACEMENT_UNDERPRICED, version=6.14.0)
    at makeError (C:\Users\HomePC\Desktop\memorymerge\node_modules\ethers\src.ts\utils\errors.ts:694:21)
    at JsonRpcProvider.getRpcError (C:\Users\HomePC\Desktop\memorymerge\node_modules\ethers\src.ts\providers\provider-jsonrpc.ts:1063:33)
    at C:\Users\HomePC\Desktop\memorymerge\node_modules\ethers\src.ts\providers\provider-jsonrpc.ts:571:45
    at processTicksAndRejections (node:internal/process/task_queues:104:5)
[Orchestrator] Fatal error: Error: writeKV failed for key "swarm/memorymerge-swarm-001/context/current_goal": Error: Upload failed: Error: replacement fee too low (transaction="0x02f901b88240da0384ee6b280784ee6b28078304ece89422e03a6a89b950f1c82ec5e74f8eca321a105296850727de34a2b90144bc8c11f800000000000000000000000000000000000000000000000000000000000000200000000000000000000000000000000000000000000000000000000000000040000000000000000000000000be12fc7aade0631c313383bdb1d686c77db0840000000000000000000000000000000000000000000000000000000000000000c2000000000000000000000000000000000000000000000000000000000000006000000000000000000000000000000000000000000000000000000000000000800000000000000000000000000000000000000000000000000000000000000000000000000000000000000000000000000000000000000000000000000000000153faf38850fe7c1065a4ad1072822dc4905b48fba04193b806f7a593f970f17f0000000000000000000000000000000000000000000000000000000000000000c001a0e7241ea170643a7e143e7b692e356cf9b23f0c398d1eb41e28dc8919e7f7fa71a04fd8968a6a7dd63ad6fc0910933f1bffa8645173f5db96ab780fa250f4ce3c85", info={ "error": { "code": -32000, "message": "replacement transaction underpriced" } }, code=REPLACEMENT_UNDERPRICED, version=6.14.0)
    at ZeroGStorageClient.writeKV (C:\Users\HomePC\Desktop\memorymerge\src\sdk\storageClient.ts:71:13)
    at processTicksAndRejections (node:internal/process/task_queues:104:5)
    at async MemoryManager.setGoal (C:\Users\HomePC\Desktop\memorymerge\src\sdk\memoryManager.ts:256:5)
    at async PlannerAgent.initializeSwarm (C:\Users\HomePC\Desktop\memorymerge\src\agents\plannerAgent.ts:34:5)
    at async MemoryMergeOrchestrator.run (C:\Users\HomePC\Desktop\memorymerge\src\orchestrator\index.ts:78:5)
    at async main (C:\Users\HomePC\Desktop\memorymerge\src\orchestrator\index.ts:169:20)
